{
  "_format": "hh-sol-artifact-1",
  "contractName": "NFTMarketplace",
  "sourceName": "contracts/NFTMarketplace.sol",
  "abi": [
    {
      "inputs": [],
      "stateMutability": "nonpayable",
      "type": "constructor"
    },
    {
      "anonymous": false,
      "inputs": [
        {
          "indexed": true,
          "internalType": "address",
          "name": "owner",
          "type": "address"
        },
        {
          "indexed": true,
          "internalType": "address",
          "name": "approved",
          "type": "address"
        },
        {
          "indexed": true,
          "internalType": "uint256",
          "name": "tokenId",
          "type": "uint256"
        }
      ],
      "name": "Approval",
      "type": "event"
    },
    {
      "anonymous": false,
      "inputs": [
        {
          "indexed": true,
          "internalType": "address",
          "name": "owner",
          "type": "address"
        },
        {
          "indexed": true,
          "internalType": "address",
          "name": "operator",
          "type": "address"
        },
        {
          "indexed": false,
          "internalType": "bool",
          "name": "approved",
          "type": "bool"
        }
      ],
      "name": "ApprovalForAll",
      "type": "event"
    },
    {
      "anonymous": false,
      "inputs": [
        {
          "indexed": true,
          "internalType": "uint256",
          "name": "tokenId",
          "type": "uint256"
        },
        {
          "indexed": false,
          "internalType": "address",
          "name": "owner",
          "type": "address"
        },
        {
          "indexed": false,
          "internalType": "address",
          "name": "seller",
          "type": "address"
        },
        {
          "indexed": false,
          "internalType": "uint256",
          "name": "price",
          "type": "uint256"
        },
        {
          "indexed": false,
          "internalType": "bool",
          "name": "currentlyListed",
          "type": "bool"
        }
      ],
      "name": "TokenListedSuccess",
      "type": "event"
    },
    {
      "anonymous": false,
      "inputs": [
        {
          "indexed": true,
          "internalType": "address",
          "name": "from",
          "type": "address"
        },
        {
          "indexed": true,
          "internalType": "address",
          "name": "to",
          "type": "address"
        },
        {
          "indexed": true,
          "internalType": "uint256",
          "name": "tokenId",
          "type": "uint256"
        }
      ],
      "name": "Transfer",
      "type": "event"
    },
    {
      "inputs": [
        {
          "internalType": "address",
          "name": "to",
          "type": "address"
        },
        {
          "internalType": "uint256",
          "name": "tokenId",
          "type": "uint256"
        }
      ],
      "name": "approve",
      "outputs": [],
      "stateMutability": "nonpayable",
      "type": "function"
    },
    {
      "inputs": [
        {
          "internalType": "address",
          "name": "owner",
          "type": "address"
        }
      ],
      "name": "balanceOf",
      "outputs": [
        {
          "internalType": "uint256",
          "name": "",
          "type": "uint256"
        }
      ],
      "stateMutability": "view",
      "type": "function"
    },
    {
      "inputs": [
        {
          "internalType": "string",
          "name": "tokenURI",
          "type": "string"
        },
        {
          "internalType": "uint256",
          "name": "price",
          "type": "uint256"
        }
      ],
      "name": "createToken",
      "outputs": [
        {
          "internalType": "uint256",
          "name": "",
          "type": "uint256"
        }
      ],
      "stateMutability": "payable",
      "type": "function"
    },
    {
      "inputs": [
        {
          "internalType": "uint256",
          "name": "tokenId",
          "type": "uint256"
        }
      ],
      "name": "executeSale",
      "outputs": [],
      "stateMutability": "payable",
      "type": "function"
    },
    {
      "inputs": [],
      "name": "getAllNFTs",
      "outputs": [
        {
          "components": [
            {
              "internalType": "uint256",
              "name": "tokenId",
              "type": "uint256"
            },
            {
              "internalType": "address payable",
              "name": "owner",
              "type": "address"
            },
            {
              "internalType": "address payable",
              "name": "seller",
              "type": "address"
            },
            {
              "internalType": "uint256",
              "name": "price",
              "type": "uint256"
            },
            {
              "internalType": "bool",
              "name": "currentlyListed",
              "type": "bool"
            }
          ],
          "internalType": "struct NFTMarketplace.ListedToken[]",
          "name": "",
          "type": "tuple[]"
        }
      ],
      "stateMutability": "view",
      "type": "function"
    },
    {
      "inputs": [
        {
          "internalType": "uint256",
          "name": "tokenId",
          "type": "uint256"
        }
      ],
      "name": "getApproved",
      "outputs": [
        {
          "internalType": "address",
          "name": "",
          "type": "address"
        }
      ],
      "stateMutability": "view",
      "type": "function"
    },
    {
      "inputs": [],
      "name": "getCurrentToken",
      "outputs": [
        {
          "internalType": "uint256",
          "name": "",
          "type": "uint256"
        }
      ],
      "stateMutability": "view",
      "type": "function"
    },
    {
      "inputs": [],
      "name": "getLatestIdToListedToken",
      "outputs": [
        {
          "components": [
            {
              "internalType": "uint256",
              "name": "tokenId",
              "type": "uint256"
            },
            {
              "internalType": "address payable",
              "name": "owner",
              "type": "address"
            },
            {
              "internalType": "address payable",
              "name": "seller",
              "type": "address"
            },
            {
              "internalType": "uint256",
              "name": "price",
              "type": "uint256"
            },
            {
              "internalType": "bool",
              "name": "currentlyListed",
              "type": "bool"
            }
          ],
          "internalType": "struct NFTMarketplace.ListedToken",
          "name": "",
          "type": "tuple"
        }
      ],
      "stateMutability": "view",
      "type": "function"
    },
    {
      "inputs": [],
      "name": "getListPrice",
      "outputs": [
        {
          "internalType": "uint256",
          "name": "",
          "type": "uint256"
        }
      ],
      "stateMutability": "view",
      "type": "function"
    },
    {
      "inputs": [
        {
          "internalType": "uint256",
          "name": "tokenId",
          "type": "uint256"
        }
      ],
      "name": "getListedTokenForId",
      "outputs": [
        {
          "components": [
            {
              "internalType": "uint256",
              "name": "tokenId",
              "type": "uint256"
            },
            {
              "internalType": "address payable",
              "name": "owner",
              "type": "address"
            },
            {
              "internalType": "address payable",
              "name": "seller",
              "type": "address"
            },
            {
              "internalType": "uint256",
              "name": "price",
              "type": "uint256"
            },
            {
              "internalType": "bool",
              "name": "currentlyListed",
              "type": "bool"
            }
          ],
          "internalType": "struct NFTMarketplace.ListedToken",
          "name": "",
          "type": "tuple"
        }
      ],
      "stateMutability": "view",
      "type": "function"
    },
    {
      "inputs": [],
      "name": "getMyNFTs",
      "outputs": [
        {
          "components": [
            {
              "internalType": "uint256",
              "name": "tokenId",
              "type": "uint256"
            },
            {
              "internalType": "address payable",
              "name": "owner",
              "type": "address"
            },
            {
              "internalType": "address payable",
              "name": "seller",
              "type": "address"
            },
            {
              "internalType": "uint256",
              "name": "price",
              "type": "uint256"
            },
            {
              "internalType": "bool",
              "name": "currentlyListed",
              "type": "bool"
            }
          ],
          "internalType": "struct NFTMarketplace.ListedToken[]",
          "name": "",
          "type": "tuple[]"
        }
      ],
      "stateMutability": "view",
      "type": "function"
    },
    {
      "inputs": [
        {
          "internalType": "address",
          "name": "owner",
          "type": "address"
        },
        {
          "internalType": "address",
          "name": "operator",
          "type": "address"
        }
      ],
      "name": "isApprovedForAll",
      "outputs": [
        {
          "internalType": "bool",
          "name": "",
          "type": "bool"
        }
      ],
      "stateMutability": "view",
      "type": "function"
    },
    {
      "inputs": [],
      "name": "name",
      "outputs": [
        {
          "internalType": "string",
          "name": "",
          "type": "string"
        }
      ],
      "stateMutability": "view",
      "type": "function"
    },
    {
      "inputs": [
        {
          "internalType": "uint256",
          "name": "tokenId",
          "type": "uint256"
        }
      ],
      "name": "ownerOf",
      "outputs": [
        {
          "internalType": "address",
          "name": "",
          "type": "address"
        }
      ],
      "stateMutability": "view",
      "type": "function"
    },
    {
      "inputs": [
        {
          "internalType": "address",
          "name": "from",
          "type": "address"
        },
        {
          "internalType": "address",
          "name": "to",
          "type": "address"
        },
        {
          "internalType": "uint256",
          "name": "tokenId",
          "type": "uint256"
        }
      ],
      "name": "safeTransferFrom",
      "outputs": [],
      "stateMutability": "nonpayable",
      "type": "function"
    },
    {
      "inputs": [
        {
          "internalType": "address",
          "name": "from",
          "type": "address"
        },
        {
          "internalType": "address",
          "name": "to",
          "type": "address"
        },
        {
          "internalType": "uint256",
          "name": "tokenId",
          "type": "uint256"
        },
        {
          "internalType": "bytes",
          "name": "_data",
          "type": "bytes"
        }
      ],
      "name": "safeTransferFrom",
      "outputs": [],
      "stateMutability": "nonpayable",
      "type": "function"
    },
    {
      "inputs": [
        {
          "internalType": "address",
          "name": "operator",
          "type": "address"
        },
        {
          "internalType": "bool",
          "name": "approved",
          "type": "bool"
        }
      ],
      "name": "setApprovalForAll",
      "outputs": [],
      "stateMutability": "nonpayable",
      "type": "function"
    },
    {
      "inputs": [
        {
          "internalType": "bytes4",
          "name": "interfaceId",
          "type": "bytes4"
        }
      ],
      "name": "supportsInterface",
      "outputs": [
        {
          "internalType": "bool",
          "name": "",
          "type": "bool"
        }
      ],
      "stateMutability": "view",
      "type": "function"
    },
    {
      "inputs": [],
      "name": "symbol",
      "outputs": [
        {
          "internalType": "string",
          "name": "",
          "type": "string"
        }
      ],
      "stateMutability": "view",
      "type": "function"
    },
    {
      "inputs": [
        {
          "internalType": "uint256",
          "name": "tokenId",
          "type": "uint256"
        }
      ],
      "name": "tokenURI",
      "outputs": [
        {
          "internalType": "string",
          "name": "",
          "type": "string"
        }
      ],
      "stateMutability": "view",
      "type": "function"
    },
    {
      "inputs": [
        {
          "internalType": "address",
          "name": "from",
          "type": "address"
        },
        {
          "internalType": "address",
          "name": "to",
          "type": "address"
        },
        {
          "internalType": "uint256",
          "name": "tokenId",
          "type": "uint256"
        }
      ],
      "name": "transferFrom",
      "outputs": [],
      "stateMutability": "nonpayable",
      "type": "function"
    },
    {
      "inputs": [
        {
          "internalType": "uint256",
          "name": "_listPrice",
          "type": "uint256"
        }
      ],
      "name": "updateListPrice",
      "outputs": [],
      "stateMutability": "payable",
      "type": "function"
    }
  ],
  "bytecode": "0x6080604052662386f26fc10000600a553480156200001c57600080fd5b50604080518082018252600e81526d4e46544d61726b6574706c61636560901b6020808301918252835180850190945260048452634e46544d60e01b9084015281519192916200006f91600091620000a0565b50805162000085906001906020840190620000a0565b5050600980546001600160a01b031916331790555062000183565b828054620000ae9062000146565b90600052602060002090601f016020900481019282620000d257600085556200011d565b82601f10620000ed57805160ff19168380011785556200011d565b828001600101855582156200011d579182015b828111156200011d57825182559160200191906001019062000100565b506200012b9291506200012f565b5090565b5b808211156200012b576000815560010162000130565b600181811c908216806200015b57607f821691505b602082108114156200017d57634e487b7160e01b600052602260045260246000fd5b50919050565b6121a880620001936000396000f3fe6080604052600436106101355760003560e01c80638e264590116100ab578063c322579c1161006f578063c322579c14610354578063c87b56dd14610367578063d1a88ae514610387578063e0391b091461039c578063e985e9c5146103b1578063ef2d1746146103fa57600080fd5b80638e264590146102bf57806395d89b41146102ec5780639b1225c414610301578063a22cb46514610314578063b88d4fde1461033457600080fd5b806342842e0e116100fd57806342842e0e1461020b578063629cb2e41461022b5780636352211e1461024d57806368f1945f1461026d57806370a082311461028c57806372b3b620146102ac57600080fd5b806301ffc9a71461013a57806306fdde031461016f578063081812fc14610191578063095ea7b3146101c957806323b872dd146101eb575b600080fd5b34801561014657600080fd5b5061015a610155366004611dae565b61040f565b60405190151581526020015b60405180910390f35b34801561017b57600080fd5b50610184610461565b6040516101669190611f7a565b34801561019d57600080fd5b506101b16101ac366004611e3c565b6104f3565b6040516001600160a01b039091168152602001610166565b3480156101d557600080fd5b506101e96101e4366004611d85565b610580565b005b3480156101f757600080fd5b506101e9610206366004611c97565b610696565b34801561021757600080fd5b506101e9610226366004611c97565b6106c7565b34801561023757600080fd5b506102406106e2565b6040516101669190611f2c565b34801561025957600080fd5b506101b1610268366004611e3c565b610927565b34801561027957600080fd5b50600a545b604051908152602001610166565b34801561029857600080fd5b5061027e6102a7366004611c4b565b61099e565b61027e6102ba366004611de6565b610a25565b3480156102cb57600080fd5b506102df6102da366004611e3c565b610a67565b6040516101669190612030565b3480156102f857600080fd5b50610184610ad1565b6101e961030f366004611e3c565b610ae0565b34801561032057600080fd5b506101e961032f366004611d4b565b610c44565b34801561034057600080fd5b506101e961034f366004611cd2565b610c53565b6101e9610362366004611e3c565b610c85565b34801561037357600080fd5b50610184610382366004611e3c565b610cf0565b34801561039357600080fd5b506102df610e67565b3480156103a857600080fd5b50610240610ede565b3480156103bd57600080fd5b5061015a6103cc366004611c65565b6001600160a01b03918216600090815260056020908152604080832093909416825291909152205460ff1690565b34801561040657600080fd5b5061027e611025565b60006001600160e01b031982166380ac58cd60e01b148061044057506001600160e01b03198216635b5e139f60e01b145b8061045b57506301ffc9a760e01b6001600160e01b03198316145b92915050565b606060008054610470906120ad565b80601f016020809104026020016040519081016040528092919081815260200182805461049c906120ad565b80156104e95780601f106104be576101008083540402835291602001916104e9565b820191906000526020600020905b8154815290600101906020018083116104cc57829003601f168201915b5050505050905090565b60006104fe82611035565b6105645760405162461bcd60e51b815260206004820152602c60248201527f4552433732313a20617070726f76656420717565727920666f72206e6f6e657860448201526b34b9ba32b73a103a37b5b2b760a11b60648201526084015b60405180910390fd5b506000908152600460205260409020546001600160a01b031690565b600061058b82610927565b9050806001600160a01b0316836001600160a01b031614156105f95760405162461bcd60e51b815260206004820152602160248201527f4552433732313a20617070726f76616c20746f2063757272656e74206f776e656044820152603960f91b606482015260840161055b565b336001600160a01b0382161480610615575061061581336103cc565b6106875760405162461bcd60e51b815260206004820152603860248201527f4552433732313a20617070726f76652063616c6c6572206973206e6f74206f7760448201527f6e6572206e6f7220617070726f76656420666f7220616c6c0000000000000000606482015260840161055b565b6106918383611052565b505050565b6106a033826110c0565b6106bc5760405162461bcd60e51b815260040161055b90611fdf565b6106918383836111a9565b61069183838360405180602001604052806000815250610c53565b606060006106ef60075490565b905060008060005b838110156107875733600b600061070f84600161203e565b81526020810191909152604001600020600101546001600160a01b03161480610762575033600b600061074384600161203e565b81526020810191909152604001600020600201546001600160a01b0316145b156107755761077260018461203e565b92505b8061077f816120e8565b9150506106f7565b5060008267ffffffffffffffff8111156107b157634e487b7160e01b600052604160045260246000fd5b6040519080825280602002602001820160405280156107ea57816020015b6107d7611af2565b8152602001906001900390816107cf5790505b50905060005b8481101561091e5733600b600061080884600161203e565b81526020810191909152604001600020600101546001600160a01b0316148061085b575033600b600061083c84600161203e565b81526020810191909152604001600020600201546001600160a01b0316145b1561090c57600061086d82600161203e565b6000818152600b6020908152604091829020825160a0810184528154815260018201546001600160a01b039081169382019390935260028201549092169282019290925260038201546060820152600482015460ff1615156080820152855192935090918590879081106108f157634e487b7160e01b600052603260045260246000fd5b602090810291909101015261090760018661203e565b945050505b80610916816120e8565b9150506107f0565b50949350505050565b6000818152600260205260408120546001600160a01b03168061045b5760405162461bcd60e51b815260206004820152602960248201527f4552433732313a206f776e657220717565727920666f72206e6f6e657869737460448201526832b73a103a37b5b2b760b91b606482015260840161055b565b60006001600160a01b038216610a095760405162461bcd60e51b815260206004820152602a60248201527f4552433732313a2062616c616e636520717565727920666f7220746865207a65604482015269726f206164647265737360b01b606482015260840161055b565b506001600160a01b031660009081526003602052604090205490565b6000610a35600780546001019055565b6000610a4060075490565b9050610a4c3382611345565b610a56818561135f565b610a6081846113ea565b9392505050565b610a6f611af2565b506000908152600b6020908152604091829020825160a0810184528154815260018201546001600160a01b03908116938201939093526002820154909216928201929092526003820154606082015260049091015460ff161515608082015290565b606060018054610470906120ad565b6000818152600b6020526040902060038101546002909101546001600160a01b0316348214610b79576040805162461bcd60e51b81526020600482015260248101919091527f506c65617365207375626d6974207468652061736b696e67207072696365206960448201527f6e206f7264657220746f20636f6d706c65746520746865207075726368617365606482015260840161055b565b6000838152600b6020526040902060048101805460ff1916600117905560020180546001600160a01b03191633179055610bb7600880546001019055565b610bc23033856111a9565b610bcc3084610580565b600954600a546040516001600160a01b039092169181156108fc0291906000818181858888f19350505050158015610c08573d6000803e3d6000fd5b506040516001600160a01b038216903480156108fc02916000818181858888f19350505050158015610c3e573d6000803e3d6000fd5b50505050565b610c4f33838361158c565b5050565b610c5d33836110c0565b610c795760405162461bcd60e51b815260040161055b90611fdf565b610c3e8484848461165b565b6009546001600160a01b03163314610ceb5760405162461bcd60e51b815260206004820152602360248201527f4f6e6c79206f776e65722063616e20757064617465206c697374696e6720707260448201526269636560e81b606482015260840161055b565b600a55565b6060610cfb82611035565b610d615760405162461bcd60e51b815260206004820152603160248201527f45524337323155524953746f726167653a2055524920717565727920666f72206044820152703737b732bc34b9ba32b73a103a37b5b2b760791b606482015260840161055b565b60008281526006602052604081208054610d7a906120ad565b80601f0160208091040260200160405190810160405280929190818152602001828054610da6906120ad565b8015610df35780601f10610dc857610100808354040283529160200191610df3565b820191906000526020600020905b815481529060010190602001808311610dd657829003601f168201915b505050505090506000610e1160408051602081019091526000815290565b9050805160001415610e24575092915050565b815115610e56578082604051602001610e3e929190611ec0565b60405160208183030381529060405292505050919050565b610e5f8461168e565b949350505050565b610e6f611af2565b6000610e7a60075490565b6000908152600b6020908152604091829020825160a0810184528154815260018201546001600160a01b03908116938201939093526002820154909216928201929092526003820154606082015260049091015460ff161515608082015292915050565b60606000610eeb60075490565b905060008167ffffffffffffffff811115610f1657634e487b7160e01b600052604160045260246000fd5b604051908082528060200260200182016040528015610f4f57816020015b610f3c611af2565b815260200190600190039081610f345790505b5090506000805b8381101561101c576000610f6b82600161203e565b6000818152600b6020908152604091829020825160a0810184528154815260018201546001600160a01b039081169382019390935260028201549092169282019290925260038201546060820152600482015460ff161515608082015286519293509091869086908110610fef57634e487b7160e01b600052603260045260246000fd5b602090810291909101015261100560018561203e565b935050508080611014906120e8565b915050610f56565b50909392505050565b600061103060075490565b905090565b6000908152600260205260409020546001600160a01b0316151590565b600081815260046020526040902080546001600160a01b0319166001600160a01b038416908117909155819061108782610927565b6001600160a01b03167f8c5be1e5ebec7d5bd14f71427d1e84f3dd0314c0f7b2291e5b200ac8c7c3b92560405160405180910390a45050565b60006110cb82611035565b61112c5760405162461bcd60e51b815260206004820152602c60248201527f4552433732313a206f70657261746f7220717565727920666f72206e6f6e657860448201526b34b9ba32b73a103a37b5b2b760a11b606482015260840161055b565b600061113783610927565b9050806001600160a01b0316846001600160a01b0316148061117e57506001600160a01b0380821660009081526005602090815260408083209388168352929052205460ff165b80610e5f5750836001600160a01b0316611197846104f3565b6001600160a01b031614949350505050565b826001600160a01b03166111bc82610927565b6001600160a01b0316146112205760405162461bcd60e51b815260206004820152602560248201527f4552433732313a207472616e736665722066726f6d20696e636f72726563742060448201526437bbb732b960d91b606482015260840161055b565b6001600160a01b0382166112825760405162461bcd60e51b8152602060048201526024808201527f4552433732313a207472616e7366657220746f20746865207a65726f206164646044820152637265737360e01b606482015260840161055b565b61128d600082611052565b6001600160a01b03831660009081526003602052604081208054600192906112b690849061206a565b90915550506001600160a01b03821660009081526003602052604081208054600192906112e490849061203e565b909155505060008181526002602052604080822080546001600160a01b0319166001600160a01b0386811691821790925591518493918716917fddf252ad1be2c89b69c2b068fc378daa952ba7f163c4a11628f55a4df523b3ef91a4505050565b610c4f828260405180602001604052806000815250611765565b61136882611035565b6113cb5760405162461bcd60e51b815260206004820152602e60248201527f45524337323155524953746f726167653a2055524920736574206f66206e6f6e60448201526d32bc34b9ba32b73a103a37b5b2b760911b606482015260840161055b565b6000828152600660209081526040909120825161069192840190611b20565b600a5434146114475760405162461bcd60e51b815260206004820152602360248201527f486f706566756c6c792073656e64696e672074686520636f727265637420707260448201526269636560e81b606482015260840161055b565b600081116114a25760405162461bcd60e51b815260206004820152602260248201527f4d616b652073757265207468652070726963652069736e2774206e6567617469604482015261766560f01b606482015260840161055b565b6040805160a081018252838152306020808301828152338486018181526060860188815260016080880181815260008c8152600b9097529890952096518755925193860180546001600160a01b039586166001600160a01b03199182161790915590516002870180549190951691161790925551600384015592516004909201805492151560ff199093169290921790915561153f9190846111a9565b604080513081523360208201529081018290526001606082015282907f9339409317fd01fabff48b703019016f49159bacc801ae872d2ca637d226e4c09060800160405180910390a25050565b816001600160a01b0316836001600160a01b031614156115ee5760405162461bcd60e51b815260206004820152601960248201527f4552433732313a20617070726f766520746f2063616c6c657200000000000000604482015260640161055b565b6001600160a01b03838116600081815260056020908152604080832094871680845294825291829020805460ff191686151590811790915591519182527f17307eab39ab6107e8899845ad3d59bd9653f200f220920489ca2b5937696c31910160405180910390a3505050565b6116668484846111a9565b61167284848484611798565b610c3e5760405162461bcd60e51b815260040161055b90611f8d565b606061169982611035565b6116fd5760405162461bcd60e51b815260206004820152602f60248201527f4552433732314d657461646174613a2055524920717565727920666f72206e6f60448201526e3732bc34b9ba32b73a103a37b5b2b760891b606482015260840161055b565b600061171460408051602081019091526000815290565b905060008151116117345760405180602001604052806000815250610a60565b8061173e846118a5565b60405160200161174f929190611ec0565b6040516020818303038152906040529392505050565b61176f83836119bf565b61177c6000848484611798565b6106915760405162461bcd60e51b815260040161055b90611f8d565b60006001600160a01b0384163b1561189a57604051630a85bd0160e11b81526001600160a01b0385169063150b7a02906117dc903390899088908890600401611eef565b602060405180830381600087803b1580156117f657600080fd5b505af1925050508015611826575060408051601f3d908101601f1916820190925261182391810190611dca565b60015b611880573d808015611854576040519150601f19603f3d011682016040523d82523d6000602084013e611859565b606091505b5080516118785760405162461bcd60e51b815260040161055b90611f8d565b805181602001fd5b6001600160e01b031916630a85bd0160e11b149050610e5f565b506001949350505050565b6060816118c95750506040805180820190915260018152600360fc1b602082015290565b8160005b81156118f357806118dd816120e8565b91506118ec9050600a83612056565b91506118cd565b60008167ffffffffffffffff81111561191c57634e487b7160e01b600052604160045260246000fd5b6040519080825280601f01601f191660200182016040528015611946576020820181803683370190505b5090505b8415610e5f5761195b60018361206a565b9150611968600a86612103565b61197390603061203e565b60f81b81838151811061199657634e487b7160e01b600052603260045260246000fd5b60200101906001600160f81b031916908160001a9053506119b8600a86612056565b945061194a565b6001600160a01b038216611a155760405162461bcd60e51b815260206004820181905260248201527f4552433732313a206d696e7420746f20746865207a65726f2061646472657373604482015260640161055b565b611a1e81611035565b15611a6b5760405162461bcd60e51b815260206004820152601c60248201527f4552433732313a20746f6b656e20616c7265616479206d696e74656400000000604482015260640161055b565b6001600160a01b0382166000908152600360205260408120805460019290611a9490849061203e565b909155505060008181526002602052604080822080546001600160a01b0319166001600160a01b03861690811790915590518392907fddf252ad1be2c89b69c2b068fc378daa952ba7f163c4a11628f55a4df523b3ef908290a45050565b6040805160a08101825260008082526020820181905291810182905260608101829052608081019190915290565b828054611b2c906120ad565b90600052602060002090601f016020900481019282611b4e5760008555611b94565b82601f10611b6757805160ff1916838001178555611b94565b82800160010185558215611b94579182015b82811115611b94578251825591602001919060010190611b79565b50611ba0929150611ba4565b5090565b5b80821115611ba05760008155600101611ba5565b600067ffffffffffffffff80841115611bd457611bd4612143565b604051601f8501601f19908116603f01168101908282118183101715611bfc57611bfc612143565b81604052809350858152868686011115611c1557600080fd5b858560208301376000602087830101525050509392505050565b80356001600160a01b0381168114611c4657600080fd5b919050565b600060208284031215611c5c578081fd5b610a6082611c2f565b60008060408385031215611c77578081fd5b611c8083611c2f565b9150611c8e60208401611c2f565b90509250929050565b600080600060608486031215611cab578081fd5b611cb484611c2f565b9250611cc260208501611c2f565b9150604084013590509250925092565b60008060008060808587031215611ce7578081fd5b611cf085611c2f565b9350611cfe60208601611c2f565b925060408501359150606085013567ffffffffffffffff811115611d20578182fd5b8501601f81018713611d30578182fd5b611d3f87823560208401611bb9565b91505092959194509250565b60008060408385031215611d5d578182fd5b611d6683611c2f565b915060208301358015158114611d7a578182fd5b809150509250929050565b60008060408385031215611d97578182fd5b611da083611c2f565b946020939093013593505050565b600060208284031215611dbf578081fd5b8135610a6081612159565b600060208284031215611ddb578081fd5b8151610a6081612159565b60008060408385031215611df8578182fd5b823567ffffffffffffffff811115611e0e578283fd5b8301601f81018513611e1e578283fd5b611e2d85823560208401611bb9565b95602094909401359450505050565b600060208284031215611e4d578081fd5b5035919050565b60008151808452611e6c816020860160208601612081565b601f01601f19169290920160200192915050565b805182526020808201516001600160a01b039081169184019190915260408083015190911690830152606080820151908301526080908101511515910152565b60008351611ed2818460208801612081565b835190830190611ee6818360208801612081565b01949350505050565b6001600160a01b0385811682528416602082015260408101839052608060608201819052600090611f2290830184611e54565b9695505050505050565b6020808252825182820181905260009190848201906040850190845b81811015611f6e57611f5b838551611e80565b9284019260a09290920191600101611f48565b50909695505050505050565b602081526000610a606020830184611e54565b60208082526032908201527f4552433732313a207472616e7366657220746f206e6f6e20455243373231526560408201527131b2b4bb32b91034b6b83632b6b2b73a32b960711b606082015260800190565b60208082526031908201527f4552433732313a207472616e736665722063616c6c6572206973206e6f74206f6040820152701ddb995c881b9bdc88185c1c1c9bdd9959607a1b606082015260800190565b60a0810161045b8284611e80565b6000821982111561205157612051612117565b500190565b6000826120655761206561212d565b500490565b60008282101561207c5761207c612117565b500390565b60005b8381101561209c578181015183820152602001612084565b83811115610c3e5750506000910152565b600181811c908216806120c157607f821691505b602082108114156120e257634e487b7160e01b600052602260045260246000fd5b50919050565b60006000198214156120fc576120fc612117565b5060010190565b6000826121125761211261212d565b500690565b634e487b7160e01b600052601160045260246000fd5b634e487b7160e01b600052601260045260246000fd5b634e487b7160e01b600052604160045260246000fd5b6001600160e01b03198116811461216f57600080fd5b5056fea2646970667358221220bc39332e8cb54af6dab35d3c82c065e7dcfd50937ce9cd0834cdb37571cb37ea64736f6c63430008040033",
  "linkReferences": {},
  "deployedLinkReferences": {}
}